{
  "address": "0x1613beB3B2C4f22Ee086B2b38C1476A3cE7f78E8",
  "abi": [
    {
      "inputs": [],
      "name": "_beforeAll",
      "outputs": [],
      "stateMutability": "nonpayable",
      "type": "function"
    },
    {
      "inputs": [],
      "name": "addition_test",
      "outputs": [],
      "stateMutability": "nonpayable",
      "type": "function"
    },
    {
      "inputs": [],
      "name": "prepare",
      "outputs": [],
      "stateMutability": "nonpayable",
      "type": "function"
    },
    {
      "inputs": [],
      "name": "sub_test",
      "outputs": [],
      "stateMutability": "nonpayable",
      "type": "function"
    },
    {
      "stateMutability": "payable",
      "type": "receive"
    }
  ],
  "transactionHash": "0x78ce4fd4e895c8f79aecfedebe50b171879f477b33f878c6f9051d7f49640efe",
  "args": [],
  "solcInputHash": "c2bf4053b9bebbf0ab817a4a76329332",
  "bytecode": "0x608060405234801561001057600080fd5b5061029c806100206000396000f3fe6080604052600436106100435760003560e01c80631c82231d1461004f5780635d9cf87014610066578063d28cebb81461007b578063fe8b40271461008d5761004a565b3661004a57005b600080fd5b34801561005b57600080fd5b506100646100a2565b005b34801561007257600080fd5b506100646100ce565b34801561008757600080fd5b50610064565b34801561009957600080fd5b506100646100f9565b6100cb600080604051806040016040528060058152602001646f68206e6f60d81b815250610124565b50565b6100cb600480604051806040016040528060058152602001646f68206e6f60d81b815250610124565b565b6100f76040518060400160405280600a8152602001691899599bdc9948185b1b60b21b815250610171565b60008083851490507f54064f459ac12c35a69d1806fade6c275221bb7b4190e4ea64bf57e373cbb16381868686604051610161949392919061021b565b60405180910390a1949350505050565b6100cb81604051602401610185919061024c565b60408051601f198184030181529190526020810180516001600160e01b031663104c13eb60e21b17905280516a636f6e736f6c652e6c6f67602083016000808483855afa5050505050565b60008151808452815b818110156101f5576020818501810151868301820152016101d9565b818111156102065782602083870101525b50601f01601f19169290920160200192915050565b600085151582528460208301528360408301526080606083015261024260808301846101d0565b9695505050505050565b60006020825261025f60208301846101d0565b939250505056fea2646970667358221220acd40729c14bada1565fb897244ab359f7275f5678ffeb2d1e5367b4662ed7b464736f6c63430008030033",
  "libraries": {},
  "devdoc": {
    "kind": "dev",
    "methods": {},
    "version": 1
  },
  "userdoc": {
    "kind": "user",
    "methods": {},
    "version": 1
  },
  "storageLayout": {
    "storage": [],
    "types": null
  }
}