{
  "address": "0xD84379CEae14AA33C123Af12424A37803F885889",
  "abi": [
    {
      "inputs": [],
      "name": "_beforeAll",
      "outputs": [],
      "stateMutability": "nonpayable",
      "type": "function"
    },
    {
      "inputs": [
        {
          "internalType": "uint256",
          "name": "amount",
          "type": "uint256"
        }
      ],
      "name": "deposit",
      "outputs": [
        {
          "internalType": "uint256",
          "name": "collateralAmountRequiredInDecimals",
          "type": "uint256"
        }
      ],
      "stateMutability": "nonpayable",
      "type": "function"
    },
    {
      "inputs": [],
      "name": "deposit_test",
      "outputs": [],
      "stateMutability": "nonpayable",
      "type": "function"
    },
    {
      "inputs": [],
      "name": "prepare",
      "outputs": [],
      "stateMutability": "nonpayable",
      "type": "function"
    },
    {
      "inputs": [
        {
          "internalType": "uint256",
          "name": "amount",
          "type": "uint256"
        }
      ],
      "name": "withdraw",
      "outputs": [
        {
          "internalType": "uint256",
          "name": "collateralAmountRequiredInDecimals",
          "type": "uint256"
        }
      ],
      "stateMutability": "nonpayable",
      "type": "function"
    },
    {
      "stateMutability": "payable",
      "type": "receive"
    }
  ],
  "transactionHash": "0x4fe7def99fc80496cb9ad764689a715061cd04a30c771aecc062f983757d4814",
  "args": [],
  "solcInputHash": "56240df7f5f66f7618b68619cf722d4c",
  "bytecode": "0x60806040526040516100109061005f565b604051809103906000f08015801561002c573d6000803e3d6000fd5b50600280546001600160a01b0319166001600160a01b039290921691909117905534801561005957600080fd5b5061006c565b60b7806200702383390190565b616fa7806200007c6000396000f3fe60806040526004361061004e5760003560e01c80632e1a7d4d1461005a57806399d644d51461008c578063b6b55f25146100a3578063d28cebb8146100c3578063fe8b4027146100d857610055565b3661005557005b600080fd5b34801561006657600080fd5b5061007a6100753660046114e6565b6100ed565b60405190815260200160405180910390f35b34801561009857600080fd5b506100a161027c565b005b3480156100af57600080fd5b5061007a6100be3660046114e6565b6104cf565b3480156100cf57600080fd5b506100a16106bd565b3480156100e457600080fd5b506100a1610cb5565b6001546040516392f72def60e01b8152600481018390526000602482018190529182916001600160a01b03909116906392f72def90604401602060405180830381600087803b15801561013f57600080fd5b505af1158015610153573d6000803e3d6000fd5b505050506040513d601f19601f8201168201806040525081019061017791906114fe565b600154604051639a91999160e01b815260048101839052600060248201529192506001600160a01b031690639a9199919060440160206040518083038186803b1580156101c357600080fd5b505afa1580156101d7573d6000803e3d6000fd5b505050506040513d601f19601f820116820180604052508101906101fb91906114fe565b600080546004805460405163d331bef760e01b81529182018890526024820193909352604481018490526001600160a01b039283166064820152929450169063d331bef7906084015b600060405180830381600087803b15801561025e57600080fd5b505af1158015610272573d6000803e3d6000fd5b5050505050919050565b6102846106bd565b600480546040516370a0823160e01b815230928101929092526000916001600160a01b03909116906370a082319060240160206040518083038186803b1580156102cd57600080fd5b505afa1580156102e1573d6000803e3d6000fd5b505050506040513d601f19601f8201168201806040525081019061030591906114fe565b905068056bc75e2d63100000600061031c826104cf565b90506000610328610d49565b6000546040516370a0823160e01b81523060048201529192506103dd916001600160a01b03909116906370a082319060240160206040518083038186803b15801561037257600080fd5b505afa158015610386573d6000803e3d6000fd5b505050506040513d601f19601f820116820180604052508101906103aa91906114fe565b84604051806040016040528060148152602001736e6f74206d696e74656420636f72726563746c7960601b815250611029565b50600480546040516370a0823160e01b81523092810192909252610489916001600160a01b03909116906370a082319060240160206040518083038186803b15801561042857600080fd5b505afa15801561043c573d6000803e3d6000fd5b505050506040513d601f19601f8201168201806040525081019061046091906114fe565b61046a9086611724565b83604051806060016040528060228152602001616f5060229139611029565b506104c861049682611076565b670de0b6b3a76400006040518060400160405280600b81526020016a6c65766572676520213d3160a81b815250611029565b5050505050565b600180546040516392f72def60e01b815260048101849052602481019290925260009182916001600160a01b0316906392f72def90604401602060405180830381600087803b15801561052157600080fd5b505af1158015610535573d6000803e3d6000fd5b505050506040513d601f19601f8201168201806040525081019061055991906114fe565b60018054604051639a91999160e01b81526004810184905260248101929092529192506001600160a01b0390911690639a9199919060440160206040518083038186803b1580156105a957600080fd5b505afa1580156105bd573d6000803e3d6000fd5b505050506040513d601f19601f820116820180604052508101906105e191906114fe565b6004805460005460405163095ea7b360e01b81526001600160a01b039182169381019390935260248301849052929450919091169063095ea7b390604401602060405180830381600087803b15801561063957600080fd5b505af115801561064d573d6000803e3d6000fd5b505050506040513d601f19601f82011682018060405250810190610671919061139a565b50600080546004805460405163fad3cc4b60e01b81529182018790526024820193909352604481018590526001600160a01b03928316606482015291169063fad3cc4b90608401610244565b6000806106cd6001600019611724565b9050600260009054906101000a90046001600160a01b03166001600160a01b031663665a11ca6040518163ffffffff1660e01b815260040160206040518083038186803b15801561071d57600080fd5b505afa158015610731573d6000803e3d6000fd5b505050506040513d601f19601f82011682018060405250810190610755919061137e565b600380546001600160a01b0319166001600160a01b039283169081179091556001546000805460405163d1870db960e01b8152600481018390526024810194909452604484019190915283166064830152848316608483015260a482018490529091169063d1870db99060c401600060405180830381600087803b1580156107dc57600080fd5b505af11580156107f0573d6000803e3d6000fd5b50505050600160009054906101000a90046001600160a01b03166001600160a01b031663d8dfeb456040518163ffffffff1660e01b815260040160206040518083038186803b15801561084257600080fd5b505afa158015610856573d6000803e3d6000fd5b505050506040513d601f19601f8201168201806040525081019061087a919061137e565b600480546001600160a01b0319166001600160a01b0392831690811782556000805460015460405163c0c53b8b60e01b8152948501929092526024840192909252831660448301529091169063c0c53b8b90606401600060405180830381600087803b1580156108e957600080fd5b505af11580156108fd573d6000803e3d6000fd5b50506004546040516001600160a01b03909116925068056bc75e2d631000009150600081818185875af1925050503d8060008114610957576040519150601f19603f3d011682016040523d82523d6000602084013e61095c565b606091505b5050600454600354678ac7230489e8000092506001600160a01b039182169163095ea7b3911661098b84611076565b6040516001600160e01b031960e085901b1681526001600160a01b0390921660048301526024820152604401602060405180830381600087803b1580156109d157600080fd5b505af11580156109e5573d6000803e3d6000fd5b505050506040513d601f19601f82011682018060405250810190610a09919061139a565b50600354604051602481018390526001600160a01b039091169060440160408051601f198184030181529181526020820180516001600160e01b0316635cfb7f8f60e01b17905251610a5b9190611542565b6000604051808303816000865af19150503d8060008114610a98576040519150601f19603f3d011682016040523d82523d6000602084013e610a9d565b606091505b50506003546040516204966760e11b8152600060048201819052925082916001600160a01b03169062092cce906024016105206040518083038186803b158015610ae657600080fd5b505afa158015610afa573d6000803e3d6000fd5b505050506040513d601f19601f82011682018060405250810190610b1e91906113b4565b61016001516004546001549195506001600160a01b03908116945063095ea7b3935016905080639a919991610b5286611076565b6040516001600160e01b031960e084901b16815260048101919091526001602482015260440160206040518083038186803b158015610b9057600080fd5b505afa158015610ba4573d6000803e3d6000fd5b505050506040513d601f19601f82011682018060405250810190610bc891906114fe565b6040516001600160e01b031960e085901b1681526001600160a01b0390921660048301526024820152604401602060405180830381600087803b158015610c0e57600080fd5b505af1158015610c22573d6000803e3d6000fd5b505050506040513d601f19601f82011682018060405250810190610c46919061139a565b50600160009054906101000a90046001600160a01b03166001600160a01b031663a29558346040518163ffffffff1660e01b8152600401600060405180830381600087803b158015610c9757600080fd5b505af1158015610cab573d6000803e3d6000fd5b5050505050505050565b604051610cc190611354565b604051809103906000f080158015610cdd573d6000803e3d6000fd5b50600080546001600160a01b0319166001600160a01b0392909216919091179055604051610d0a90611361565b604051809103906000f080158015610d26573d6000803e3d6000fd5b50600180546001600160a01b0319166001600160a01b0392909216919091179055565b6003546040516204966760e11b815260006004820181905291829182918291829182916001600160a01b039091169062092cce906024016105206040518083038186803b158015610d9957600080fd5b505afa158015610dad573d6000803e3d6000fd5b505050506040513d601f19601f82011682018060405250810190610dd191906113b4565b602080820151610160830151608084015160a09094015160408051808201909152600c81526b0e4cae6cae4eccac886c2e6d60a31b94810194909452919a509850919650909450869350610e2892509050826110d5565b600354600154604051637d3ba80f60e01b81526000600482018190526001600160a01b039283166024830152928392839283929190911690637d3ba80f906044016101206040518083038186803b158015610e8257600080fd5b505afa158015610e96573d6000803e3d6000fd5b505050506040513d601f19601f82011682018060405250810190610eba9190611469565b505050505093509350935093506000610edc610ed585611145565b8b9061115e565b9050610f0d6040518060400160405280600d81526020016c706f736974696f6e56616c756560981b815250826110d5565b6000610f19828961115e565b90506000610f27868b61115e565b610f3190886116e5565b90506000610f3f8d8861115e565b610f4990836115e7565b9050610f83604051806040016040528060168152602001750dac2e4ced2dc84c2d8c2dcc6ca8ce4deda9a86888ab60531b815250866110d5565b610fb26040518060400160405280600d81526020016c6d617267696e42616c616e636560981b815250826110d5565b600089610fbf85846116e5565b610fc991906116e5565b90506000610fd78b846116e5565b9050610fe38682611195565b9f505050505050505050505050611022604051806040016040528060088152602001676c6576657261676560c01b81525061101d87611076565b6111db565b5050505090565b60008083851490507f54064f459ac12c35a69d1806fade6c275221bb7b4190e4ea64bf57e373cbb16381868686604051611066949392919061155e565b60405180910390a1949350505050565b6000808212156110cd5760405162461bcd60e51b815260206004820181905260248201527f53616665436173743a2076616c7565206d75737420626520706f73697469766560448201526064015b60405180910390fd5b50805b919050565b600081126111105761110b826040518060400160405280600381526020016201d10160ed1b81525061110684611076565b611220565b611141565b61114182604051806040016040528060038152602001623a202d60e81b81525061110661113c85611145565b611076565b5050565b6000808212156110cd576111588261126c565b92915050565b6000670de0b6b3a76400006111846111768585611279565b670de0b6b3a7640000611285565b61118e9190611628565b9392505050565b6000808212156111b6576111a88261126c565b91506111b38361126c565b92505b61118e826111d56111cf86670de0b6b3a7640000611279565b85611285565b9061130f565b61114182826040516024016111f19291906115c5565b60408051601f198184030181529190526020810180516001600160e01b03166309710a9d60e41b17905261131b565b6112678383836040516024016112389392919061158f565b60408051601f198184030181529190526020810180516001600160e01b031663f362ca5960e01b17905261131b565b505050565b600061115860008361133c565b600061118e8284611662565b60008082136112d65760405162461bcd60e51b815260206004820152601f60248201527f726f756e6448616c665570206f6e6c7920737570706f7274732079203e20300060448201526064016110c4565b600083126112fa576112f36112ec600284611628565b8490611348565b9050611158565b61118e611308600284611628565b849061133c565b600061118e8284611628565b80516a636f6e736f6c652e6c6f67602083016000808483855afa5050505050565b600061118e82846116e5565b600061118e82846115e7565b612a46806117b083390190565b612d5a806141f683390190565b805180151581146110d057600080fd5b60006020828403121561138f578081fd5b815161118e81611797565b6000602082840312156113ab578081fd5b61118e8261136e565b60008060006105208085870312156113ca578283fd5b8451600581106113d8578384fd5b809450506020808601516113eb81611797565b9350605f860187136113fb578283fd5b6040516104e0810181811067ffffffffffffffff8211171561141f5761141f611781565b8060405250806040880189858a011115611437578586fd5b8594505b602785101561145a57805182526001949094019390830190830161143b565b50508093505050509250925092565b60008060008060008060008060006101208a8c031215611487578485fd5b8951985060208a0151975060408a0151965060608a0151955060808a015194506114b360a08b0161136e565b93506114c160c08b0161136e565b92506114cf60e08b0161136e565b91506101008a015190509295985092959850929598565b6000602082840312156114f7578081fd5b5035919050565b60006020828403121561150f578081fd5b5051919050565b6000815180845261152e81602086016020860161173b565b601f01601f19169290920160200192915050565b6000825161155481846020870161173b565b9190910192915050565b60008515158252846020830152836040830152608060608301526115856080830184611516565b9695505050505050565b6000606082526115a26060830186611516565b82810360208401526115b48186611516565b915050826040830152949350505050565b6000604082526115d86040830185611516565b90508260208301529392505050565b600080821280156001600160ff1b03849003851316156116095761160961176b565b600160ff1b83900384128116156116225761162261176b565b50500190565b60008261164357634e487b7160e01b81526012600452602481fd5b600160ff1b82146000198414161561165d5761165d61176b565b500590565b60006001600160ff1b03818413828413808216868404861116156116885761168861176b565b600160ff1b848712828116878305891216156116a6576116a661176b565b8587129250878205871284841616156116c1576116c161176b565b878505871281841616156116d7576116d761176b565b505050929093029392505050565b60008083128015600160ff1b8501841216156117035761170361176b565b6001600160ff1b038401831381161561171e5761171e61176b565b50500390565b6000828210156117365761173661176b565b500390565b60005b8381101561175657818101518382015260200161173e565b83811115611765576000848401525b50505050565b634e487b7160e01b600052601160045260246000fd5b634e487b7160e01b600052604160045260246000fd5b6001600160a01b03811681146117ac57600080fd5b5056fe608060405234801561001057600080fd5b50612a26806100206000396000f3fe608060405234801561001057600080fd5b50600436106101f05760003560e01c8063715018a61161010f578063c0c53b8b116100a2578063d505accf11610071578063d505accf14610456578063dd62ed3e14610469578063f2fde38b1461047c578063fad3cc4b1461048f576101f0565b8063c0c53b8b14610409578063cbc1248b1461041c578063ce6a33801461042f578063d331bef714610443576101f0565b80639af1d35a116100de5780639af1d35a146103c6578063a457c2d7146103d0578063a9059cbb146103e3578063a9fae5fd146103f6576101f0565b8063715018a6146103925780637ecebe001461039a5780638da5cb5b146103ad57806395d89b41146103be576101f0565b8063313ce567116101875780633cd95611116101565780633cd95611146102ff5780633d18678e14610334578063572b6c051461034757806370a0823114610369576101f0565b8063313ce567146102a95780633535f48b146102b85780633644e515146102e457806339509351146102ec576101f0565b806318160ddd116101c357806318160ddd1461025e57806318787a0f146102705780631c1f8aa31461028357806323b872dd14610296576101f0565b8063054ee785146101f557806306fdde031461020a578063095ea7b3146102285780631569aa251461024b575b600080fd5b610208610203366004612487565b6104a2565b005b610212610517565b60405161021f919061280d565b60405180910390f35b61023b6102363660046125da565b6105aa565b604051901515815260200161021f565b6102086102593660046126ce565b6105c7565b6035545b60405190815260200161021f565b61020861027e366004612605565b61064c565b610208610291366004612487565b6108d9565b61023b6102a4366004612525565b610945565b6040516012815260200161021f565b610131546102cc906001600160a01b031681565b6040516001600160a01b03909116815260200161021f565b610262610a16565b61023b6102fa3660046125da565b610a25565b6102cc61030d3660046126aa565b6101336020908152600092835260408084209091529082529020546001600160a01b031681565b61020861034236600461267a565b610a79565b61023b610355366004612487565b60fe546001600160a01b0390811691161490565b610262610377366004612487565b6001600160a01b031660009081526033602052604090205490565b610208610ac8565b6102626103a8366004612487565b610b1d565b60cc546001600160a01b03166102cc565b610212610b3d565b6102626101325481565b61023b6103de3660046125da565b610b4c565b61023b6103f13660046125da565b610c03565b610208610404366004612605565b610c17565b6102086104173660046124db565b610e82565b61020861042a3660046126f4565b610f7d565b610130546102cc906001600160a01b031681565b610208610451366004612785565b6111e4565b610208610464366004612565565b6111f8565b6102626104773660046124a3565b61133e565b61020861048a366004612487565b611369565b61020861049d366004612785565b611423565b6104aa611437565b6001600160a01b03166104c560cc546001600160a01b031690565b6001600160a01b0316146104f45760405162461bcd60e51b81526004016104eb906128ae565b60405180910390fd5b61013080546001600160a01b0319166001600160a01b0392909216919091179055565b60606036805461052690612990565b80601f016020809104026020016040519081016040528092919081815260200182805461055290612990565b801561059f5780601f106105745761010080835404028352916020019161059f565b820191906000526020600020905b81548152906001019060200180831161058257829003601f168201915b505050505090505b90565b60006105be6105b7611437565b8484611441565b50600192915050565b6105cf611437565b6001600160a01b03166105ea60cc546001600160a01b031690565b6001600160a01b0316146106105760405162461bcd60e51b81526004016104eb906128ae565b6000928352610133602090815260408085206001600160a01b0394851686529091529092208054919092166001600160a01b0319909116179055565b6000838152610133602090815260408083206001600160a01b03858116855292528083205490516392f72def60e01b815260048101889052600160248201529116919082906392f72def90604401602060405180830381600087803b1580156106b457600080fd5b505af11580156106c8573d6000803e3d6000fd5b505050506040513d601f19601f820116820180604052508101906106ec9190612692565b604051639a91999160e01b815260048101829052600160248201529091506001600160a01b03831690639a9199919060440160206040518083038186803b15801561073657600080fd5b505afa15801561074a573d6000803e3d6000fd5b505050506040513d601f19601f8201168201806040525081019061076e9190612692565b9050838111156107cc5760405162461bcd60e51b8152602060048201526024808201527f636f6c6c61746572616c207265717569726564206578656365656473206d6178604482015263696d756d60e01b60648201526084016104eb565b826001600160a01b03166323b872dd6107e3611437565b6040516001600160e01b031960e084901b1681526001600160a01b039182166004820152908516602482015260448101849052606401602060405180830381600087803b15801561083357600080fd5b505af1158015610847573d6000803e3d6000fd5b505050506040513d601f19601f8201168201806040525081019061086b919061265a565b5060405163690e7c0960e01b8152600481018790526001600160a01b0383169063690e7c0990602401600060405180830381600087803b1580156108ae57600080fd5b505af11580156108c2573d6000803e3d6000fd5b505050506108d08787611566565b50505050505050565b6108e1611437565b6001600160a01b03166108fc60cc546001600160a01b031690565b6001600160a01b0316146109225760405162461bcd60e51b81526004016104eb906128ae565b61013180546001600160a01b0319166001600160a01b0392909216919091179055565b6000610952848484611646565b6001600160a01b038416600090815260346020526040812081610973611437565b6001600160a01b03166001600160a01b03168152602001908152602001600020549050828110156109f75760405162461bcd60e51b815260206004820152602860248201527f45524332303a207472616e7366657220616d6f756e74206578636565647320616044820152676c6c6f77616e636560c01b60648201526084016104eb565b610a0b85610a03611437565b858403611441565b506001949350505050565b6000610a20611814565b905090565b60006105be610a32611437565b848460346000610a40611437565b6001600160a01b03908116825260208083019390935260409182016000908120918b1681529252902054610a7491906128e3565b611441565b610a81611437565b6001600160a01b0316610a9c60cc546001600160a01b031690565b6001600160a01b031614610ac25760405162461bcd60e51b81526004016104eb906128ae565b61013255565b610ad0611437565b6001600160a01b0316610aeb60cc546001600160a01b031690565b6001600160a01b031614610b115760405162461bcd60e51b81526004016104eb906128ae565b610b1b600061188f565b565b6001600160a01b0381166000908152609960205260408120545b92915050565b60606037805461052690612990565b60008060346000610b5b611437565b6001600160a01b0390811682526020808301939093526040918201600090812091881681529252902054905082811015610be55760405162461bcd60e51b815260206004820152602560248201527f45524332303a2064656372656173656420616c6c6f77616e63652062656c6f77604482015264207a65726f60d81b60648201526084016104eb565b610bf9610bf0611437565b85858403611441565b5060019392505050565b60006105be610c10611437565b8484611646565b610c28610c22611437565b856118e1565b6000838152610133602090815260408083206001600160a01b03858116855292528083205490516392f72def60e01b815260048101889052602481018490529116919082906392f72def90604401602060405180830381600087803b158015610c9057600080fd5b505af1158015610ca4573d6000803e3d6000fd5b505050506040513d601f19601f82011682018060405250810190610cc89190612692565b604051639a91999160e01b815260048101829052600060248201529091506001600160a01b03831690639a9199919060440160206040518083038186803b158015610d1257600080fd5b505afa158015610d26573d6000803e3d6000fd5b505050506040513d601f19601f82011682018060405250810190610d4a9190612692565b905083811015610d9c5760405162461bcd60e51b815260206004820152601e60248201527f636f6c6c61746572616c20676f74206261636b20697320746f6f206c6f77000060448201526064016104eb565b604051630575f5a760e11b8152600481018790526001600160a01b03831690630aebeb4e90602401600060405180830381600087803b158015610dde57600080fd5b505af1158015610df2573d6000803e3d6000fd5b505060405163a9059cbb60e01b81526001600160a01b038a81166004830152602482018590528616925063a9059cbb9150604401602060405180830381600087803b158015610e4057600080fd5b505af1158015610e54573d6000803e3d6000fd5b505050506040513d601f19601f82011682018060405250810190610e78919061265a565b5050505050505050565b600054610100900460ff1680610e9b575060005460ff16155b610eb75760405162461bcd60e51b81526004016104eb90612860565b600054610100900460ff16158015610ed9576000805461ffff19166101011790555b610ee1611a2c565b610f27604051806040016040528060088152602001675553444c656d6d6160c01b815250604051806040016040528060048152602001631554d11360e21b815250611aa7565b610f50604051806040016040528060088152602001675553444c656d6d6160c01b815250611b26565b610f5984611bc6565b610f65600084846105c7565b8015610f77576000805461ff00191690555b50505050565b6000858152610133602090815260408083206001600160a01b038089168552925291829020549151635e64e07b60e11b8152911690819063bcc9c0f690610fce9033908890889088906004016127c5565b602060405180830381600087803b158015610fe857600080fd5b505af1158015610ffc573d6000803e3d6000fd5b505050506040513d601f19601f82011682018060405250810190611020919061265a565b6110615760405162461bcd60e51b8152602060048201526012602482015271726562616c616e6365206e6f7420646f6e6560701b60448201526064016104eb565b600084126110db57600061107485611c2e565b90506000612710610132548361108a919061291b565b61109491906128fb565b905060006110a28284612979565b610130549091506110bc906001600160a01b031683611566565b610131546110d3906001600160a01b031682611566565b5050506111dc565b60006110ee6110e986611c84565b611c2e565b610131549091506000906111329061110f906001600160a01b03163061133e565b610131546001600160a01b03166000908152603360205260409020545b90611c91565b6101305490915060009061117490611153906001600160a01b03163061133e565b610130546001600160a01b031660009081526033602052604090205461112c565b905060006111828385611c91565b9050600061119a6111938387612979565b8490611c91565b905081156111b957610131546111b9906001600160a01b031683611ca9565b80156111d657610130546111d6906001600160a01b031682611ca9565b50505050505b505050505050565b610f776111ef611437565b85858585610c17565b834211156112485760405162461bcd60e51b815260206004820152601d60248201527f45524332305065726d69743a206578706972656420646561646c696e6500000060448201526064016104eb565b6000609a548888886112598c611d2a565b6040805160208101969096526001600160a01b0394851690860152929091166060840152608083015260a082015260c0810186905260e00160405160208183030381529060405280519060200120905060006112b482611d52565b905060006112c482878787611da0565b9050896001600160a01b0316816001600160a01b0316146113275760405162461bcd60e51b815260206004820152601e60248201527f45524332305065726d69743a20696e76616c6964207369676e6174757265000060448201526064016104eb565b6113328a8a8a611441565b50505050505050505050565b6001600160a01b03918216600090815260346020908152604080832093909416825291909152205490565b611371611437565b6001600160a01b031661138c60cc546001600160a01b031690565b6001600160a01b0316146113b25760405162461bcd60e51b81526004016104eb906128ae565b6001600160a01b0381166114175760405162461bcd60e51b815260206004820152602660248201527f4f776e61626c653a206e6577206f776e657220697320746865207a65726f206160448201526564647265737360d01b60648201526084016104eb565b6114208161188f565b50565b610f7761142e611437565b8585858561064c565b6000610a20611dc8565b6001600160a01b0383166114a35760405162461bcd60e51b8152602060048201526024808201527f45524332303a20617070726f76652066726f6d20746865207a65726f206164646044820152637265737360e01b60648201526084016104eb565b6001600160a01b0382166115045760405162461bcd60e51b815260206004820152602260248201527f45524332303a20617070726f766520746f20746865207a65726f206164647265604482015261737360f01b60648201526084016104eb565b6001600160a01b0383811660008181526034602090815260408083209487168084529482529182902085905590518481527f8c5be1e5ebec7d5bd14f71427d1e84f3dd0314c0f7b2291e5b200ac8c7c3b92591015b60405180910390a3505050565b6001600160a01b0382166115bc5760405162461bcd60e51b815260206004820152601f60248201527f45524332303a206d696e7420746f20746865207a65726f20616464726573730060448201526064016104eb565b80603560008282546115ce91906128e3565b90915550506001600160a01b038216600090815260336020526040812080548392906115fb9084906128e3565b90915550506040518181526001600160a01b038316906000907fddf252ad1be2c89b69c2b068fc378daa952ba7f163c4a11628f55a4df523b3ef9060200160405180910390a35b5050565b6001600160a01b0383166116aa5760405162461bcd60e51b815260206004820152602560248201527f45524332303a207472616e736665722066726f6d20746865207a65726f206164604482015264647265737360d81b60648201526084016104eb565b6001600160a01b03821661170c5760405162461bcd60e51b815260206004820152602360248201527f45524332303a207472616e7366657220746f20746865207a65726f206164647260448201526265737360e81b60648201526084016104eb565b6001600160a01b038316600090815260336020526040902054818110156117845760405162461bcd60e51b815260206004820152602660248201527f45524332303a207472616e7366657220616d6f756e7420657863656564732062604482015265616c616e636560d01b60648201526084016104eb565b6001600160a01b038085166000908152603360205260408082208585039055918516815290812080548492906117bb9084906128e3565b92505081905550826001600160a01b0316846001600160a01b03167fddf252ad1be2c89b69c2b068fc378daa952ba7f163c4a11628f55a4df523b3ef8460405161180791815260200190565b60405180910390a3610f77565b6000610a207f8b73c3c69bb8fe3d512ecc4cf759cc79239f7b179b0ffacaa9a75d522b39400f61184360655490565b6066546040805160208101859052908101839052606081018290524660808201523060a082015260009060c0016040516020818303038152906040528051906020012090509392505050565b60cc80546001600160a01b038381166001600160a01b0319831681179093556040519116919082907f8be0079c531659141344cd1fd0a4f28419497f9722a3daafe3b4186f6b6457e090600090a35050565b6001600160a01b0382166119415760405162461bcd60e51b815260206004820152602160248201527f45524332303a206275726e2066726f6d20746865207a65726f206164647265736044820152607360f81b60648201526084016104eb565b6001600160a01b038216600090815260336020526040902054818110156119b55760405162461bcd60e51b815260206004820152602260248201527f45524332303a206275726e20616d6f756e7420657863656564732062616c616e604482015261636560f01b60648201526084016104eb565b6001600160a01b03831660009081526033602052604081208383039055603580548492906119e4908490612979565b90915550506040518281526000906001600160a01b038516907fddf252ad1be2c89b69c2b068fc378daa952ba7f163c4a11628f55a4df523b3ef90602001611559565b505050565b600054610100900460ff1680611a45575060005460ff16155b611a615760405162461bcd60e51b81526004016104eb90612860565b600054610100900460ff16158015611a83576000805461ffff19166101011790555b611a8b611df4565b611a93611e5e565b8015611420576000805461ff001916905550565b600054610100900460ff1680611ac0575060005460ff16155b611adc5760405162461bcd60e51b81526004016104eb90612860565b600054610100900460ff16158015611afe576000805461ffff19166101011790555b611b06611df4565b611b108383611ec5565b8015611a27576000805461ff0019169055505050565b600054610100900460ff1680611b3f575060005460ff16155b611b5b5760405162461bcd60e51b81526004016104eb90612860565b600054610100900460ff16158015611b7d576000805461ffff19166101011790555b611b85611df4565b611ba882604051806040016040528060018152602001603160f81b815250611f5a565b611bb182611fe4565b8015611642576000805461ff00191690555050565b600054610100900460ff1680611bdf575060005460ff16155b611bfb5760405162461bcd60e51b81526004016104eb90612860565b600054610100900460ff16158015611c1d576000805461ffff19166101011790555b611c25611df4565b611bb182612074565b600080821215611c805760405162461bcd60e51b815260206004820181905260248201527f53616665436173743a2076616c7565206d75737420626520706f73697469766560448201526064016104eb565b5090565b6000610b376000836120fb565b6000818310611ca05781611ca2565b825b9392505050565b6000611cb5833061133e565b905081811015611d135760405162461bcd60e51b8152602060048201526024808201527f45524332303a206275726e20616d6f756e74206578636565647320616c6c6f77604482015263616e636560e01b60648201526084016104eb565b611d208330848403611441565b611a2783836118e1565b6001600160a01b03811660009081526099602052604090208054600181018255905b50919050565b6000610b37611d5f611814565b8360405161190160f01b6020820152602281018390526042810182905260009060620160405160208183030381529060405280519060200120905092915050565b6000806000611db187878787612107565b91509150611dbe816121f4565b5095945050505050565b60fe546000906001600160a01b0316331415611ded575060131936013560601c6105a7565b50336105a7565b600054610100900460ff1680611e0d575060005460ff16155b611e295760405162461bcd60e51b81526004016104eb90612860565b600054610100900460ff16158015611a93576000805461ffff19166101011790558015611420576000805461ff001916905550565b600054610100900460ff1680611e77575060005460ff16155b611e935760405162461bcd60e51b81526004016104eb90612860565b600054610100900460ff16158015611eb5576000805461ffff19166101011790555b611a93611ec0611437565b61188f565b600054610100900460ff1680611ede575060005460ff16155b611efa5760405162461bcd60e51b81526004016104eb90612860565b600054610100900460ff16158015611f1c576000805461ffff19166101011790555b8251611f2f9060369060208601906123f7565b508151611f439060379060208501906123f7565b508015611a27576000805461ff0019169055505050565b600054610100900460ff1680611f73575060005460ff16155b611f8f5760405162461bcd60e51b81526004016104eb90612860565b600054610100900460ff16158015611fb1576000805461ffff19166101011790555b82516020808501919091208351918401919091206065919091556066558015611a27576000805461ff0019169055505050565b600054610100900460ff1680611ffd575060005460ff16155b6120195760405162461bcd60e51b81526004016104eb90612860565b600054610100900460ff1615801561203b576000805461ffff19166101011790555b7f6e71edae12b1b97f4d1f60370fef10105fa2faae0126114a169c64845d6126c9609a558015611642576000805461ff00191690555050565b600054610100900460ff168061208d575060005460ff16155b6120a95760405162461bcd60e51b81526004016104eb90612860565b600054610100900460ff161580156120cb576000805461ffff19166101011790555b60fe80546001600160a01b0319166001600160a01b0384161790558015611642576000805461ff00191690555050565b6000611ca2828461293a565b6000807f7fffffffffffffffffffffffffffffff5d576e7357a4501ddfe92f46681b20a083111561213e57506000905060036121eb565b8460ff16601b1415801561215657508460ff16601c14155b1561216757506000905060046121eb565b6040805160008082526020820180845289905260ff881692820192909252606081018690526080810185905260019060a0016020604051602081039080840390855afa1580156121bb573d6000803e3d6000fd5b5050604051601f1901519150506001600160a01b0381166121e4576000600192509250506121eb565b9150600090505b94509492505050565b600081600481111561221657634e487b7160e01b600052602160045260246000fd5b141561222157611420565b600181600481111561224357634e487b7160e01b600052602160045260246000fd5b14156122915760405162461bcd60e51b815260206004820152601860248201527f45434453413a20696e76616c6964207369676e6174757265000000000000000060448201526064016104eb565b60028160048111156122b357634e487b7160e01b600052602160045260246000fd5b14156123015760405162461bcd60e51b815260206004820152601f60248201527f45434453413a20696e76616c6964207369676e6174757265206c656e6774680060448201526064016104eb565b600381600481111561232357634e487b7160e01b600052602160045260246000fd5b141561237c5760405162461bcd60e51b815260206004820152602260248201527f45434453413a20696e76616c6964207369676e6174757265202773272076616c604482015261756560f01b60648201526084016104eb565b600481600481111561239e57634e487b7160e01b600052602160045260246000fd5b14156114205760405162461bcd60e51b815260206004820152602260248201527f45434453413a20696e76616c6964207369676e6174757265202776272076616c604482015261756560f01b60648201526084016104eb565b82805461240390612990565b90600052602060002090601f016020900481019282612425576000855561246b565b82601f1061243e57805160ff191683800117855561246b565b8280016001018555821561246b579182015b8281111561246b578251825591602001919060010190612450565b50611c809291505b80821115611c805760008155600101612473565b600060208284031215612498578081fd5b8135611ca2816129db565b600080604083850312156124b5578081fd5b82356124c0816129db565b915060208301356124d0816129db565b809150509250929050565b6000806000606084860312156124ef578081fd5b83356124fa816129db565b9250602084013561250a816129db565b9150604084013561251a816129db565b809150509250925092565b600080600060608486031215612539578283fd5b8335612544816129db565b92506020840135612554816129db565b929592945050506040919091013590565b600080600080600080600060e0888a03121561257f578283fd5b873561258a816129db565b9650602088013561259a816129db565b95506040880135945060608801359350608088013560ff811681146125bd578384fd5b9699959850939692959460a0840135945060c09093013592915050565b600080604083850312156125ec578182fd5b82356125f7816129db565b946020939093013593505050565b600080600080600060a0868803121561261c578081fd5b8535612627816129db565b9450602086013593506040860135925060608601359150608086013561264c816129db565b809150509295509295909350565b60006020828403121561266b578081fd5b81518015158114611ca2578182fd5b60006020828403121561268b578081fd5b5035919050565b6000602082840312156126a3578081fd5b5051919050565b600080604083850312156126bc578182fd5b8235915060208301356124d0816129db565b6000806000606084860312156126e2578283fd5b83359250602084013561250a816129db565b60008060008060006080868803121561270b578283fd5b85359450602086013561271d816129db565b935060408601359250606086013567ffffffffffffffff80821115612740578283fd5b818801915088601f830112612753578283fd5b813581811115612761578384fd5b896020828501011115612772578384fd5b9699959850939650602001949392505050565b6000806000806080858703121561279a578182fd5b84359350602085013592506040850135915060608501356127ba816129db565b939692955090935050565b6001600160a01b0385168152602081018490526060604082018190528101829052600082846080840137818301608090810191909152601f909201601f191601019392505050565b6000602080835283518082850152825b818110156128395785810183015185820160400152820161281d565b8181111561284a5783604083870101525b50601f01601f1916929092016040019392505050565b6020808252602e908201527f496e697469616c697a61626c653a20636f6e747261637420697320616c72656160408201526d191e481a5b9a5d1a585b1a5e995960921b606082015260800190565b6020808252818101527f4f776e61626c653a2063616c6c6572206973206e6f7420746865206f776e6572604082015260600190565b600082198211156128f6576128f66129c5565b500190565b60008261291657634e487b7160e01b81526012600452602481fd5b500490565b6000816000190483118215151615612935576129356129c5565b500290565b60008083128015600160ff1b850184121615612958576129586129c5565b6001600160ff1b0384018313811615612973576129736129c5565b50500390565b60008282101561298b5761298b6129c5565b500390565b600181811c908216806129a457607f821691505b60208210811415611d4c57634e487b7160e01b600052602260045260246000fd5b634e487b7160e01b600052601160045260246000fd5b6001600160a01b038116811461142057600080fdfea26469706673582212201dfcc89b02307356f972143fac6744c95dc4e6ee183b7a4d5e46318a7a83e5cb64736f6c63430008030033608060405234801561001057600080fd5b50612d3a806100206000396000f3fe608060405234801561001057600080fd5b50600436106101f05760003560e01c80638ed59fd01161010f578063bcc9c0f6116100a2578063d555f62311610071578063d555f623146103c8578063d8dfeb45146103db578063ec9c6c30146103ee578063f2fde38b146103f7576101f0565b8063bcc9c0f614610386578063beba14e114610399578063beeb9dfb146103ac578063d1870db9146103b5576101f0565b80639a919991116100de5780639a91999114610345578063a18a7bfc14610358578063a1f9637d1461036b578063a29558341461037e576101f0565b80638ed59fd01461031857806392f72def1461032157806398a367a01461033457806399cbad761461033d576101f0565b806342bf732511610187578063690e7c0911610156578063690e7c09146102e2578063715018a6146102f5578063851b137b146102fd5780638da5cb5b14610310576101f0565b806342bf732514610269578063572b6c0514610272578063665a11ca146102a457806368447c93146102cf576101f0565b8063122e7b07116101c3578063122e7b071461022d5780631d8688751461024e57806333a581d2146102575780633d7bfaaa14610260576101f0565b80630aebeb4e146101f55780630d7e5a791461020a57806310dd56861461021257806311da60b414610225575b600080fd5b610208610203366004612836565b61040a565b005b6102086107ab565b610208610220366004612836565b610948565b61020861098c565b61023b6001600160ff1b0381565b6040519081526020015b60405180910390f35b61023b60a15481565b61023b60001981565b61023b60a25481565b61023b60985481565b61029461028036600461249b565b6065546001600160a01b0390811691161490565b6040519015158152602001610245565b6097546102b7906001600160a01b031681565b6040516001600160a01b039091168152602001610245565b609d546102b7906001600160a01b031681565b6102086102f0366004612836565b610a9e565b610208610df0565b61020861030b36600461249b565b610e3b565b6102b7610e9c565b61023b609f5481565b61023b61032f36600461284e565b610eac565b61023b60a05481565b61023b611272565b61023b61035336600461284e565b6113b9565b61020861036636600461249b565b61144f565b609c546102b7906001600160a01b031681565b6102086114b0565b610294610394366004612549565b61167d565b609b546102b7906001600160a01b031681565b61023b609e5481565b6102086103c33660046124da565b6119d1565b6102086103d636600461249b565b611c7e565b6099546102b7906001600160a01b031681565b61023b609a5481565b61020861040536600461249b565b611cdf565b609b546001600160a01b031661041e611d8f565b6001600160a01b03161461044d5760405162461bcd60e51b81526004016104449061287d565b60405180910390fd5b600061045a826000610eac565b6097546098546040516204966760e11b81529293506000926001600160a01b039092169162092cce916104939160040190815260200190565b6105206040518083038186803b1580156104ac57600080fd5b505afa1580156104c0573d6000803e3d6000fd5b505050506040513d601f19601f820116820180604052508101906104e491906126af565b509091506004905081600481111561050c57634e487b7160e01b600052602160045260246000fd5b1461070357609754609854604051637d3ba80f60e01b815260048101919091523060248201526000916001600160a01b031690637d3ba80f906044016101206040518083038186803b15801561056157600080fd5b505afa158015610575573d6000803e3d6000fd5b505050506040513d601f19601f82011682018060405250810190610599919061278e565b50506097546098549698506001600160a01b0316965063709240c49594503093506105c992508a9150611d9e9050565b6105d290612c85565b609d546040516001600160e01b031960e087901b16815261060b94939291600091600019916001600160a01b0316908390600401612937565b602060405180830381600087803b15801561062557600080fd5b505af1158015610639573d6000803e3d6000fd5b505050506040513d601f19601f8201168201806040525081019061065d9190612749565b506097546098546001600160a01b0390911690636ef05a40903061068087611d9e565b6040516001600160e01b031960e086901b16815260048101939093526001600160a01b0390911660248301526044820152606401600060405180830381600087803b1580156106ce57600080fd5b505af11580156106e2573d6000803e3d6000fd5b50505050610701816106f386611d9e565b6106fc90612c85565b611e0c565b505b609954609b546001600160a01b039182169163a9059cbb91166107278560006113b9565b6040516001600160e01b031960e085901b1681526001600160a01b0390921660048301526024820152604401602060405180830381600087803b15801561076d57600080fd5b505af1158015610781573d6000803e3d6000fd5b505050506040513d601f19601f820116820180604052508101906107a591906125cd565b50505050565b609b546040805163019cd46760e71b81529051734e352cf164e64adcbad318c3a1e222e9eba4ce42926000926001600160a01b039091169163ce6a338091600480820192602092909190829003018186803b15801561080957600080fd5b505afa15801561081d573d6000803e3d6000fd5b505050506040513d601f19601f8201168201806040525081019061084191906124be565b6040516370a0823160e01b81523060048201529091506001600160a01b0383169063a9059cbb90839083906370a082319060240160206040518083038186803b15801561088d57600080fd5b505afa1580156108a1573d6000803e3d6000fd5b505050506040513d601f19601f820116820180604052508101906108c59190612749565b6040516001600160e01b031960e085901b1681526001600160a01b0390921660048301526024820152604401602060405180830381600087803b15801561090b57600080fd5b505af115801561091f573d6000803e3d6000fd5b505050506040513d601f19601f8201168201806040525081019061094391906125cd565b505050565b610950611d8f565b6001600160a01b0316610961610e9c565b6001600160a01b0316146109875760405162461bcd60e51b815260040161044490612902565b60a255565b609754609854604051637d3ba80f60e01b815260048101919091523060248201526000916001600160a01b031690637d3ba80f906044016101206040518083038186803b1580156109dc57600080fd5b505afa1580156109f0573d6000803e3d6000fd5b505050506040513d601f19601f82011682018060405250810190610a14919061278e565b50505050505050915050610a2f610a2a82611f0d565b611f20565b60a1556097546098546040516312c5a32760e31b815260048101919091523060248201526001600160a01b039091169063962d1938906044015b600060405180830381600087803b158015610a8357600080fd5b505af1158015610a97573d6000803e3d6000fd5b5050505050565b609b546001600160a01b0316610ab2611d8f565b6001600160a01b031614610ad85760405162461bcd60e51b81526004016104449061287d565b6000610ae5826001610eac565b9050610af28160016113b9565b6099546040516370a0823160e01b81523060048201526001600160a01b03909116906370a082319060240160206040518083038186803b158015610b3557600080fd5b505afa158015610b49573d6000803e3d6000fd5b505050506040513d601f19601f82011682018060405250810190610b6d9190612749565b1015610bb35760405162461bcd60e51b81526020600482015260156024820152741b9bdd08195b9bdd59da0818dbdb1b185d195c985b605a1b6044820152606401610444565b6097546098546001600160a01b03909116906378f140ea9030610bd585611d9e565b6040516001600160e01b031960e086901b16815260048101939093526001600160a01b0390911660248301526044820152606401600060405180830381600087803b158015610c2357600080fd5b505af1158015610c37573d6000803e3d6000fd5b5050609754609854604051637d3ba80f60e01b81526004810191909152306024820152600093506001600160a01b039091169150637d3ba80f906044016101206040518083038186803b158015610c8d57600080fd5b505afa158015610ca1573d6000803e3d6000fd5b505050506040513d601f19601f82011682018060405250810190610cc5919061278e565b5050505050505091505060a25483610cdf610a2a84611f0d565b610ce99190612a0b565b1115610d2e5760405162461bcd60e51b81526020600482015260146024820152731b585e081c1bdcda5d1a5bdb881c995858da195960621b6044820152606401610444565b6097546098546001600160a01b039091169063709240c49030610d5087611d9e565b609d546040516001600160e01b031960e087901b168152610d90949392916001600160ff1b0391600019916001600160a01b031690600090600401612937565b602060405180830381600087803b158015610daa57600080fd5b505af1158015610dbe573d6000803e3d6000fd5b505050506040513d601f19601f82011682018060405250810190610de29190612749565b50610943816106fc85611d9e565b610df8611d8f565b6001600160a01b0316610e09610e9c565b6001600160a01b031614610e2f5760405162461bcd60e51b815260040161044490612902565b610e396000611f72565b565b610e43611d8f565b6001600160a01b0316610e54610e9c565b6001600160a01b031614610e7a5760405162461bcd60e51b815260040161044490612902565b609b80546001600160a01b0319166001600160a01b0392909216919091179055565b6033546001600160a01b03165b90565b609754604080516338437e9960e11b815290516000926001600160a01b031691637086fd32916004808301928692919082900301818387803b158015610ef157600080fd5b505af1158015610f05573d6000803e3d6000fd5b50505050600082610f2757610f1984611d9e565b610f2290612c85565b610f30565b610f3084611d9e565b6097546098546040516204966760e11b81529293506000926001600160a01b039092169162092cce91610f699160040190815260200190565b6105206040518083038186803b158015610f8257600080fd5b505afa158015610f96573d6000803e3d6000fd5b505050506040513d601f19601f82011682018060405250810190610fba91906126af565b5090915060049050816004811115610fe257634e487b7160e01b600052602160045260246000fd5b14156111815783156110455760405162461bcd60e51b815260206004820152602660248201527f63616e6e6f74206f70656e207768656e2070657270657475616c206861732073604482015265195d1d1b195960d21b6064820152608401610444565b609754609854604051637d3ba80f60e01b815260048101919091523060248201526000916001600160a01b031690637d3ba80f906044016101206040518083038186803b15801561109557600080fd5b505afa1580156110a9573d6000803e3d6000fd5b505050506040513d601f19601f820116820180604052508101906110cd919061278e565b50505050945050505050806000146110e7576110e761098c565b60a1546099546040516370a0823160e01b815230600482015288916001600160a01b0316906370a082319060240160206040518083038186803b15801561112d57600080fd5b505afa158015611141573d6000803e3d6000fd5b505050506040513d601f19601f820116820180604052508101906111659190612749565b61116f9190612bfc565b6111799190612a51565b93505061126a565b609754609854609d546040516342ee6b0560e11b81526004810192909252306024830152604482018590526001600160a01b0390811660648301526000608483018190529283929116906385dcd60a9060a40160606040518083038186803b1580156111ec57600080fd5b505afa158015611200573d6000803e3d6000fd5b505050506040513d601f19601f820116820180604052508101906112249190612761565b5091509150600061123e836112388a611d9e565b90611fc4565b90508661125757611252610a2a8383612c1b565b611264565b611264610a2a83836129ca565b95505050505b505092915050565b6097546098546040516204966760e11b81526004810191909152600091829182916001600160a01b03169062092cce906024016105206040518083038186803b1580156112be57600080fd5b505afa1580156112d2573d6000803e3d6000fd5b505050506040513d601f19601f820116820180604052508101906112f691906126af565b60800151609754609854604051637d3ba80f60e01b81526004810191909152306024820152919550600094506001600160a01b03169250637d3ba80f91506044016101206040518083038186803b15801561135057600080fd5b505afa158015611364573d6000803e3d6000fd5b505050506040513d601f19601f82011682018060405250810190611388919061278e565b505050505050509150506113a58282611fc490919063ffffffff16565b609e546113b29190612c1b565b9250505090565b60008180156113e95750609a546113d1906012612c5a565b6113dc90600a612aab565b6113e69084612c71565b15155b1561142357609a546113fc906012612c5a565b61140790600a612aab565b6114119084612a51565b61141c906001612a0b565b9050611449565b609a54611431906012612c5a565b61143c90600a612aab565b6114469084612a51565b90505b92915050565b611457611d8f565b6001600160a01b0316611468610e9c565b6001600160a01b03161461148e5760405162461bcd60e51b815260040161044490612902565b609d80546001600160a01b0319166001600160a01b0392909216919091179055565b6114b8611d8f565b6001600160a01b03166114c9610e9c565b6001600160a01b0316146114ef5760405162461bcd60e51b815260040161044490612902565b6097546098546040516204966760e11b815260009283926001600160a01b039091169162092cce916115279160040190815260200190565b6105206040518083038186803b15801561154057600080fd5b505afa158015611554573d6000803e3d6000fd5b505050506040513d601f19601f8201168201806040525081019061157891906126af565b61016001516099549094506001600160a01b031692506323b872dd915061159f9050611d8f565b306115b36115ac86611f20565b60016113b9565b6040516001600160e01b031960e086901b1681526001600160a01b0393841660048201529290911660248301526044820152606401602060405180830381600087803b15801561160257600080fd5b505af1158015611616573d6000803e3d6000fd5b505050506040513d601f19601f8201168201806040525081019061163a91906125cd565b50609754609854604051633c78a07560e11b81526004810191909152306024820152604481018390526001600160a01b03909116906378f140ea90606401610a69565b609754604080516338437e9960e11b815290516000926001600160a01b031691637086fd32916004808301928692919082900301818387803b1580156116c257600080fd5b505af11580156116d6573d6000803e3d6000fd5b5050609b546001600160a01b031691506116f09050611d8f565b6001600160a01b0316146117165760405162461bcd60e51b81526004016104449061287d565b609c546001600160a01b038681169116146117735760405162461bcd60e51b815260206004820152601a60248201527f6f6e6c7920726562616c616e63657220697320616c6c6f7765640000000000006044820152606401610444565b60008061178284860186612815565b915091506000611790611272565b609754609854609d546040516342ee6b0560e11b81526004810192909252306024830152604482018b90526001600160a01b039081166064830152600060848301819052939450839216906385dcd60a9060a40160606040518083038186803b1580156117fc57600080fd5b505afa158015611810573d6000803e3d6000fd5b505050506040513d601f19601f820116820180604052508101906118349190612761565b50915091506000611848836112388c611f0d565b90506000611859610a2a84846129ca565b905060008b12156118895761186d81611d9e565b609f600082825461187e9190612c1b565b909155506118a99050565b61189281611d9e565b609f60008282546118a391906129ca565b90915550505b6000609f54866118b99190612c1b565b905064e8d4a510006118ca82611f0d565b13156119065760405162461bcd60e51b815260206004820152600b60248201526a1b9bdd08185b1b1bddd95960aa1b6044820152606401610444565b609760009054906101000a90046001600160a01b03166001600160a01b031663709240c4609854308f8c8c609d60009054906101000a90046001600160a01b031660006040518863ffffffff1660e01b815260040161196b9796959493929190612937565b602060405180830381600087803b15801561198557600080fd5b505af1158015611999573d6000803e3d6000fd5b505050506040513d601f19601f820116820180604052508101906119bd9190612749565b5060019d9c50505050505050505050505050565b600054610100900460ff16806119ea575060005460ff16155b611a065760405162461bcd60e51b8152600401610444906128b4565b600054610100900460ff16158015611a28576000805461ffff19166101011790555b611a30611ff4565b611a398761206f565b609780546001600160a01b0319166001600160a01b03881690811790915560988690556040805163066e082d60e11b8152905160009283928392630cdc105a9160048082019261024092909190829003018186803b158015611a9a57600080fd5b505afa158015611aae573d6000803e3d6000fd5b505050506040513d601f19601f82011682018060405250810190611ad291906125e9565b945050935050925082611b1d5760405162461bcd60e51b8152602060048201526013602482015272706f6f6c206973206e6f742072756e6e696e6760681b6044820152606401610444565b60a09190910151609980546001600160a01b0319166001600160a01b0390921691909117905551609a5550611b5183611c7e565b611b5a84610e3b565b611b6382610948565b60995460975460405163095ea7b360e01b81526001600160a01b039182166004820152600019602482015291169063095ea7b390604401602060405180830381600087803b158015611bb457600080fd5b505af1158015611bc8573d6000803e3d6000fd5b505050506040513d601f19601f82011682018060405250810190611bec91906125cd565b50609754609854604051632d47ba5760e01b81526004810191909152306024820152670de0b6b3a764000060448201526001600160a01b0390911690632d47ba5790606401600060405180830381600087803b158015611c4b57600080fd5b505af1158015611c5f573d6000803e3d6000fd5b505050508015611c75576000805461ff00191690555b50505050505050565b611c86611d8f565b6001600160a01b0316611c97610e9c565b6001600160a01b031614611cbd5760405162461bcd60e51b815260040161044490612902565b609c80546001600160a01b0319166001600160a01b0392909216919091179055565b611ce7611d8f565b6001600160a01b0316611cf8610e9c565b6001600160a01b031614611d1e5760405162461bcd60e51b815260040161044490612902565b6001600160a01b038116611d835760405162461bcd60e51b815260206004820152602660248201527f4f776e61626c653a206e6577206f776e657220697320746865207a65726f206160448201526564647265737360d01b6064820152608401610444565b611d8c81611f72565b50565b6000611d996120ed565b905090565b60006001600160ff1b03821115611e085760405162461bcd60e51b815260206004820152602860248201527f53616665436173743a2076616c756520646f65736e27742066697420696e2061604482015267371034b73a191a9b60c11b6064820152608401610444565b5090565b600080611e198484612119565b6097546098546040516204966760e11b8152600481019190915292945090925060009182916001600160a01b03169062092cce906024016105206040518083038186803b158015611e6957600080fd5b505afa158015611e7d573d6000803e3d6000fd5b505050506040513d601f19601f82011682018060405250810190611ea191906126af565b6080015193505084159150611ee6905057846000611ebf85836129ca565b9050611ee082611eda83609e54611fc490919063ffffffff16565b90612177565b609e5550505b8115610a9757611ef68183611fc4565b609e54611f0391906129ca565b609e555050505050565b600080821215611e0857611449826121bd565b600080821215611e085760405162461bcd60e51b815260206004820181905260248201527f53616665436173743a2076616c7565206d75737420626520706f7369746976656044820152606401610444565b603380546001600160a01b038381166001600160a01b0319831681179093556040519116919082907f8be0079c531659141344cd1fd0a4f28419497f9722a3daafe3b4186f6b6457e090600090a35050565b6000670de0b6b3a7640000611fea611fdc85856121ca565b670de0b6b3a76400006121d6565b6114469190612a23565b600054610100900460ff168061200d575060005460ff16155b6120295760405162461bcd60e51b8152600401610444906128b4565b600054610100900460ff1615801561204b576000805461ffff19166101011790555b612053612259565b61205b6122c3565b8015611d8c576000805461ff001916905550565b600054610100900460ff1680612088575060005460ff16155b6120a45760405162461bcd60e51b8152600401610444906128b4565b600054610100900460ff161580156120c6576000805461ffff19166101011790555b6120ce612259565b6120d78261232a565b80156120e9576000805461ff00191690555b5050565b6065546000906001600160a01b0316331415612112575060131936013560601c610ea9565b5033610ea9565b60008061212684846123b1565b1561213657506000905081612170565b61213f83611f0d565b61214885611f0d565b1261215857508190506000612170565b612161846121bd565b61216b85856123d4565b915091505b9250929050565b6000808212156121985761218a826121bd565b9150612195836121bd565b92505b611446826121b76121b186670de0b6b3a76400006121ca565b856121d6565b906123e0565b60006114496000836123ec565b60006114468284612b79565b60008082136122275760405162461bcd60e51b815260206004820152601f60248201527f726f756e6448616c665570206f6e6c7920737570706f7274732079203e2030006044820152606401610444565b600083126122445761141c61223d600284612a23565b84906123d4565b611446612252600284612a23565b84906123ec565b600054610100900460ff1680612272575060005460ff16155b61228e5760405162461bcd60e51b8152600401610444906128b4565b600054610100900460ff1615801561205b576000805461ffff19166101011790558015611d8c576000805461ff001916905550565b600054610100900460ff16806122dc575060005460ff16155b6122f85760405162461bcd60e51b8152600401610444906128b4565b600054610100900460ff1615801561231a576000805461ffff19166101011790555b61205b612325611d8f565b611f72565b600054610100900460ff1680612343575060005460ff16155b61235f5760405162461bcd60e51b8152600401610444906128b4565b600054610100900460ff16158015612381576000805461ffff19166101011790555b606580546001600160a01b0319166001600160a01b03841617905580156120e9576000805461ff00191690555050565b60008215806123be575081155b156123cb57506001611449565b501860ff1d1590565b600061144682846129ca565b60006114468284612a23565b60006114468284612c1b565b600082601f830112612408578081fd5b61241260a0612978565b80838560a086011115612423578384fd5b835b6005811015612444578151845260209384019390910190600101612425565b509095945050505050565b600082601f83011261245f578081fd5b6124696080612978565b80838560808601111561247a578384fd5b835b600481101561244457815184526020938401939091019060010161247c565b6000602082840312156124ac578081fd5b81356124b781612ce1565b9392505050565b6000602082840312156124cf578081fd5b81516124b781612ce1565b60008060008060008060c087890312156124f2578182fd5b86356124fd81612ce1565b9550602087013561250d81612ce1565b945060408701359350606087013561252481612ce1565b9250608087013561253481612ce1565b8092505060a087013590509295509295509295565b6000806000806060858703121561255e578384fd5b843561256981612ce1565b935060208501359250604085013567ffffffffffffffff8082111561258c578384fd5b818701915087601f83011261259f578384fd5b8135818111156125ad578485fd5b8860208285010111156125be578485fd5b95989497505060200194505050565b6000602082840312156125de578081fd5b81516124b781612cf6565b60008060008060006102408688031215612601578283fd5b855161260c81612cf6565b8095505060208087015161261f81612cf6565b9450605f8701881361262f578384fd5b600761264261263d826129a9565b612978565b8060408a016101208b018c811115612658578889fd5b885b8581101561267f57825161266d81612ce1565b8552938601939186019160010161265a565b5082985061268d8d826123f8565b97505050505050506126a3876101c0880161244f565b90509295509295909350565b60008060006105208085870312156126c5578182fd5b8451600581106126d3578283fd5b809450506020808601516126e681612ce1565b9350605f860187136126f6578283fd5b602761270461263d826129a9565b80604089018a868b011115612717578687fd5b8695505b8386101561273957805183526001959095019491840191840161271b565b5080955050505050509250925092565b60006020828403121561275a578081fd5b5051919050565b600080600060608486031215612775578081fd5b8351925060208401519150604084015190509250925092565b60008060008060008060008060006101208a8c0312156127ac578687fd5b8951985060208a0151975060408a0151965060608a0151955060808a0151945060a08a01516127da81612cf6565b60c08b01519094506127eb81612cf6565b60e08b01519093506127fc81612cf6565b809250506101008a015190509295985092959850929598565b60008060408385031215612827578182fd5b50508035926020909101359150565b600060208284031215612847578081fd5b5035919050565b60008060408385031215612860578182fd5b82359150602083013561287281612cf6565b809150509250929050565b60208082526018908201527f6f6e6c79207573644c656d6d6120697320616c6c6f7765640000000000000000604082015260600190565b6020808252602e908201527f496e697469616c697a61626c653a20636f6e747261637420697320616c72656160408201526d191e481a5b9a5d1a585b1a5e995960921b606082015260800190565b6020808252818101527f4f776e61626c653a2063616c6c6572206973206e6f7420746865206f776e6572604082015260600190565b9687526001600160a01b03958616602088015260408701949094526060860192909252608085015290911660a083015263ffffffff1660c082015260e00190565b604051601f8201601f1916810167ffffffffffffffff811182821017156129a1576129a1612ccb565b604052919050565b600067ffffffffffffffff8211156129c3576129c3612ccb565b5060051b90565b600080821280156001600160ff1b03849003851316156129ec576129ec612c9f565b600160ff1b8390038412811615612a0557612a05612c9f565b50500190565b60008219821115612a1e57612a1e612c9f565b500190565b600082612a3257612a32612cb5565b600160ff1b821460001984141615612a4c57612a4c612c9f565b500590565b600082612a6057612a60612cb5565b500490565b80825b6001808611612a775750612aa2565b818704821115612a8957612a89612c9f565b80861615612a9657918102915b9490941c938002612a68565b94509492505050565b60006114466000198484600082612ac4575060016124b7565b81612ad1575060006124b7565b8160018114612ae75760028114612af157612b1e565b60019150506124b7565b60ff841115612b0257612b02612c9f565b6001841b915084821115612b1857612b18612c9f565b506124b7565b5060208310610133831016604e8410600b8410161715612b51575081810a83811115612b4c57612b4c612c9f565b6124b7565b612b5e8484846001612a65565b808604821115612b7057612b70612c9f565b02949350505050565b60006001600160ff1b0381841382841380821686840486111615612b9f57612b9f612c9f565b600160ff1b84871282811687830589121615612bbd57612bbd612c9f565b858712925087820587128484161615612bd857612bd8612c9f565b87850587128184161615612bee57612bee612c9f565b505050929093029392505050565b6000816000190483118215151615612c1657612c16612c9f565b500290565b60008083128015600160ff1b850184121615612c3957612c39612c9f565b6001600160ff1b0384018313811615612c5457612c54612c9f565b50500390565b600082821015612c6c57612c6c612c9f565b500390565b600082612c8057612c80612cb5565b500690565b6000600160ff1b821415612c9b57612c9b612c9f565b0390565b634e487b7160e01b600052601160045260246000fd5b634e487b7160e01b600052601260045260246000fd5b634e487b7160e01b600052604160045260246000fd5b6001600160a01b0381168114611d8c57600080fd5b8015158114611d8c57600080fdfea2646970667358221220ea6e7d6fadd2a51dddf2f701f7ded10980e25943adf520131cdaba9f3db8655264736f6c63430008030033636f6c6c61746572616c207472616e7366657272656420696e636f72726563746c79a264697066735822122077bea591ac66bd18dba167f93b4c2936ab3f3b3e6d22b7367c7fa22f8dd8deae64736f6c634300080300336080604052348015600f57600080fd5b5060998061001e6000396000f3fe6080604052348015600f57600080fd5b506004361060285760003560e01c8063665a11ca14602d575b600080fd5b604773c676b2f6674a1650baf5948bc1dd9326f2743a4d81565b6040516001600160a01b03909116815260200160405180910390f3fea2646970667358221220ad16c4a705ae445408431d294c1bf468f228474c8f49962c6d014b8a85c9eaef64736f6c63430008030033",
  "libraries": {},
  "devdoc": {
    "kind": "dev",
    "methods": {},
    "version": 1
  },
  "userdoc": {
    "kind": "user",
    "methods": {},
    "version": 1
  },
  "storageLayout": {
    "storage": [
      {
        "astId": 6022,
        "contract": "contracts/tests/USDLemma_Test.sol:USDLemma_Test",
        "label": "usdLemma",
        "offset": 0,
        "slot": "0",
        "type": "t_contract(USDLemma)4591"
      },
      {
        "astId": 6025,
        "contract": "contracts/tests/USDLemma_Test.sol:USDLemma_Test",
        "label": "mcdexLemma",
        "offset": 0,
        "slot": "1",
        "type": "t_contract(MCDEXLemma)7585"
      },
      {
        "astId": 6032,
        "contract": "contracts/tests/USDLemma_Test.sol:USDLemma_Test",
        "label": "mcdexAdresses",
        "offset": 0,
        "slot": "2",
        "type": "t_contract(MCDEXAdresses)5933"
      },
      {
        "astId": 6035,
        "contract": "contracts/tests/USDLemma_Test.sol:USDLemma_Test",
        "label": "liquidityPool",
        "offset": 0,
        "slot": "3",
        "type": "t_contract(ILiquidityPool)4979"
      },
      {
        "astId": 6050,
        "contract": "contracts/tests/USDLemma_Test.sol:USDLemma_Test",
        "label": "collateral",
        "offset": 0,
        "slot": "4",
        "type": "t_contract(IERC20Upgradeable)2128"
      }
    ],
    "types": {
      "t_contract(IERC20Upgradeable)2128": {
        "encoding": "inplace",
        "label": "contract IERC20Upgradeable",
        "numberOfBytes": "20"
      },
      "t_contract(ILiquidityPool)4979": {
        "encoding": "inplace",
        "label": "contract ILiquidityPool",
        "numberOfBytes": "20"
      },
      "t_contract(MCDEXAdresses)5933": {
        "encoding": "inplace",
        "label": "contract MCDEXAdresses",
        "numberOfBytes": "20"
      },
      "t_contract(MCDEXLemma)7585": {
        "encoding": "inplace",
        "label": "contract MCDEXLemma",
        "numberOfBytes": "20"
      },
      "t_contract(USDLemma)4591": {
        "encoding": "inplace",
        "label": "contract USDLemma",
        "numberOfBytes": "20"
      }
    }
  }
}